{
  "contractName": "DSecret",
  "abi": [
    {
      "inputs": [],
      "payable": false,
      "stateMutability": "nonpayable",
      "type": "constructor"
    },
    {
      "constant": false,
      "inputs": [
        {
          "name": "_content",
          "type": "string"
        }
      ],
      "name": "createSecret",
      "outputs": [],
      "payable": true,
      "stateMutability": "payable",
      "type": "function"
    }
  ],
  "bytecode": "0x608060405234801561001057600080fd5b5033600160006101000a81548173ffffffffffffffffffffffffffffffffffffffff021916908373ffffffffffffffffffffffffffffffffffffffff160217905550610246806100616000396000f300608060405260043610610041576000357c0100000000000000000000000000000000000000000000000000000000900463ffffffff1680631969f29014610046575b600080fd5b6100a0600480360381019080803590602001908201803590602001908080601f01602080910402602001604051908101604052809392919081815260200183838082843782019150505050505091929192905050506100a2565b005b60006060604051908101604052808381526020013373ffffffffffffffffffffffffffffffffffffffff1681526020013481525090806001815401808255809150509060018203906000526020600020906003020160009091929091909150600082015181600001908051906020019061011d929190610175565b5060208201518160010160006101000a81548173ffffffffffffffffffffffffffffffffffffffff021916908373ffffffffffffffffffffffffffffffffffffffff1602179055506040820151816002015550505050565b828054600181600116156101000203166002900490600052602060002090601f016020900481019282601f106101b657805160ff19168380011785556101e4565b828001600101855582156101e4579182015b828111156101e35782518255916020019190600101906101c8565b5b5090506101f191906101f5565b5090565b61021791905b808211156102135760008160009055506001016101fb565b5090565b905600a165627a7a7230582038ce4ffdaacb62c2dd1976fca4a5cc55cb3bddbf11ca2dbc1172dcb4a585abe20029",
  "source": "pragma solidity ^0.4.23;\n\ncontract DSecret {\n  struct Secret {\n    string content;\n    address owner;\n    uint256 baseAmount;\n  }\n  Secret[] secrets;\n  address owner;\n\n  constructor() public {\n    owner = msg.sender;\n  }\n\n  function createSecret(string _content) public payable {\n    secrets.push(Secret(_content, msg.sender, msg.value));\n  }\n}\n",
  "sourcePath": "/Users/mz026/codes/toys/dsecret/contracts/DSecret.sol",
  "compiler": {
    "name": "solc",
    "version": "0.4.24+commit.e67f0147.Emscripten.clang"
  },
  "schemaVersion": "2.0.0",
  "updatedAt": "2018-06-04T08:33:45.323Z"
}